:1000000000000420DD0100000902000009020000D8
:1000100009020000090200000902000009020000B4
:1000200009020000090200000902000009020000A4
:100030000902000009020000090200000902000094
:100040000902000009020000090200000902000084
:100050000902000009020000090200000902000074
:10006000090200002133000009020000090200001B
:100070000902000009020000090200000902000054
:100080000902000009020000090200000902000044
:1000900009020000090200004934000009020000C2
:1000A0000902000009020000090200000D3C0000E6
:1000B0000902000009020000090200000902000014
:1000C0000902000009020000090200000902000004
:1000D00009020000090200000902000009020000F4
:1000E00009020000090200000902000009020000E4
:1000F00009020000090200000902000009020000D4
:1001000009020000090200000902000010B5054CB8
:10011000237833B9044B13B10448AFF300800123B3
:10012000237010BD8000002000000000204B000064
:10013000084B10B51BB108480849AFF300800848C8
:10014000036803B910BD074B002BFBD0BDE810407E
:10015000184700BF00000000204B00008400002072
:100160007C00002000000000154B002B08BF134B43
:100170009D46A3F5803A00218B460F461348144A4A
:10018000121A04F08BFC0F4B002B00D098470E4B3B
:10019000002B00D098470020002104000D000D48DE
:1001A000002802D00C48AFF3008004F051FC20007E
:1001B000290003F09BFD04F037FC00BF000008009D
:1001C000000004200000000000000000800000206B
:1001D00008010020000000000000000006488047E1
:1001E0000649074A074B9A42BEBF51F8040B42F832
:1001F000040BF8E7FFF7B8FFED0200002C4B0000FE
:100200000000002080000020FEE700BF80B582B023
:1002100000AF00F027F878600A4BD3F808210A4BAA
:1002200013401B0A3B603B6801337A68B2FBF3F36F
:100230007B60064A7B6813607B6818460837BD46BA
:1002400080BD00BF00400E4000FF010008000020FC
:1002500080B400AF024B1846BD465DF8047B704782
:10026000005A620280B483B000AF164BD3F89430CA
:1002700003F00703032B08D0042B02D0022B08D075
:100280000BE0114B1B687B600BE04FF400437B607D
:1002900007E00E4B1B687B6003E00D4B1B687B6027
:1002A00000BF084BD3F8003103F4F8531B0A0133A5
:1002B0007A68B2FBF3F318460C37BD465DF8047B51
:1002C000704700BF00400E400400002000000020E6
:1002D0000C00002080B400AF034B1B681846BD46DD
:1002E0005DF8047B704700BF0000002080B400AFC1
:1002F000074B084A9A60064A054BD3F8883043F406
:100300007003C2F88830BD465DF8047B704700BFBB
:1003100000ED00E00000000080B400AF4FF40043A7
:100320001846BD465DF8047B704700BF80B400AF3F
:100330004FF47A731846BD465DF8047B704700BFE2
:1003400080B400AF034B1B681846BD465DF8047BC4
:10035000704700BF0400002080B487B000AFF86091
:10036000B9607A60FB6803F10473DA00BB68134478
:100370009B007B617B697A681A601C37BD465DF81B
:10038000047B704780B485B000AF786039607B68CB
:1003900003F10473DA003B6813449B00FB60FB68C5
:1003A0001B6818461437BD465DF8047B704700BFD4
:1003B00080B483B000AF78607B68012202FA03F357
:1003C00018460C37BD465DF8047B704780B584B095
:1003D00000AF78607B680133B3FA83F3DBB2C3F11B
:1003E0001F03FB60F868FFF7E3FFFB681846103750
:1003F000BD4680BD80B500AF00BF04481221FFF7A5
:10040000C1FF0346002BF8D180BD00BF04300E4071
:1004100080B500AFFFF7EEFF034B5B6803F440339A
:100420001B0CDBB2184680BD00300E4080B584B096
:1004300000AF78600123FB607B68124A934204D8C6
:100440000023FB600023BB6008E07B680E4A9342F8
:1004500002D80123BB6001E00223BB600B481021DE
:10046000FA68FFF779FF0949084BD3F8003123F008
:100470008072BB681B061343C1F800311037BD46BC
:1004800080BD00BF0048E8010090D00300400E404E
:1004900080B483B000AF054B1B687B607B68184657
:1004A0000C37BD465DF8047B704700BF100000208C
:1004B00080B582B000AFFFF7D5FE7860064BD3F869
:1004C000003103F4F8531B0A01337A6802FB03F38B
:1004D00018460837BD4680BD00400E4080B582B04A
:1004E00000AF0D4800F058FC0346FB70FB78072B6B
:1004F00005D0092B07D1FFF7B5FE786006E0FFF7BE
:10050000C7FF786002E000237B6000BF7B6818466D
:100510000837BD4680BD00BF06000E0080B584B020
:1005200000AF78607B68002B1CD11B4800F034FCC6
:100530000346FB7200BFFB7A013B072B23D801A2C5
:1005400052F823F0690500008705000087050000C8
:100550007705000087050000870500006F05000093
:100560007F050000002312E00023FB600EE0FFF790
:100570008FFFF8600AE0FFF7ADFEF86006E0FFF7D6
:1005800097FFF86002E00023FB6000BFFB6818469D
:100590001037BD4680BD00BFB800320080B485B0C2
:1005A00000AF786039601D4B5B6803F04073FB60FF
:1005B0000023BB6013E01A4ABB68DB0013441A79BE
:1005C0003B68DBB29A4207D1154ABB6852F8332028
:1005D0007B689A4200D305E0BB680133BB60BB680F
:1005E000042BE8D9BB68052B02D10323FB6005E08F
:1005F0000B4ABB68DB0013445B79FB60FB681B069E
:10060000FB600649054B5B6823F04072FB681343AF
:100610004B601437BD465DF8047B704700000E4008
:10062000C84A000080B582B000AF0D4B1B6C002B98
:1006300014BF01230023FB71094B41F671321A6488
:10064000FFF706FE034618460021FFF7A7FFFB79D8
:10065000002B02D0024B00221A640837BD4680BD31
:1006600000000E4080B584B000AF786039600C4B5C
:100670001B6C002B14BF01230023FB73084B41F6B6
:1006800071321A6478683968FFF788FFFB7B002BAA
:1006900002D0034B00221A641037BD4680BD00BF54
:1006A00000000E4080B487B000AF78600F237B61FC
:1006B0007B6803333B617B69FB60FA683B6993426B
:1006C00028BF1346BB60BB681B07BB60BB681846EE
:1006D0001C37BD465DF8047B704700BF80B400AF97
:1006E000044B5B6A03F030031B091846BD465DF8F6
:1006F000047B704700400E4080B483B000AF786048
:100700000649064B5B6A23F030027B681B011343EA
:100710004B620C37BD465DF8047B704700400E40CD
:1007200090B585B000AF78600023BB607B68354A28
:10073000934206D0344A934203D0344A934200D0C5
:1007400000E000BF786800F027FB0346FB607B6891
:100750002C4A93420DD02C4A934211D02B4A9342FB
:1007600000D014E02A4BD3F8803003F00703FB607D
:100770000DE0274BD3F8843003F00703FB6006E05D
:10078000234BD3F8883003F00703FB6000BFFB68FE
:10079000042B2ED801A252F823F000BFED07000071
:1007A000B1070000B9070000C9070000C107000039
:1007B000FFF7B2FDB8601FE0FFF7C2FDB8601BE0B5
:1007C000FFF7B4FDB86017E0FFF720FD0446104BBB
:1007D000D3F8003103F080731B0E01331846FFF786
:1007E000E7FD0346B4FBF3F3BB6005E00023BB6009
:1007F00002E00023BB6000BFBB6818461437BD464B
:1008000090BD00BF030020000500240002001E0070
:1008100000400E4080B483B000AF78600A4BD3F83C
:10082000443103F00103002B00D007E000BF064B6A
:10083000D3F840217B681340002BF8D10C37BD461C
:100840005DF8047B704700BF00400E4080B400AFED
:10085000BD465DF8047B704780B400AFBD465DF8CF
:10086000047B704780B586B000AF78600B46FB70A4
:1008700000233B617B681B0A03F00F03013B092B3C
:1008800044D801A252F823F0B1080000BD080000CE
:100890000D0900000D090000B7080000C3080000A2
:1008A000CD0800000D090000D7080000E308000093
:1008B000184B7B6118E0184B7B6115E0174B7B618F
:1008C00012E0174B7B6101233B610DE0154B7B610F
:1008D00010233B6108E0144B7B614FF480333B6194
:1008E00002E0124B7B6100BF7B681B0B03F01F0310
:1008F000FB603B69002B02D03869FFF78BFFFB7868
:100900007869F9681A46FFF727FD00E000BF18373D
:10091000BD4680BD00400E40B0400E40C0400E407D
:10092000E0400E40E8400E40F0400E4050410E4086
:1009300080B584B000AF78607B6803F47813B3F5BA
:10094000A01F7DD0B3F5A01F1AD8B3F5202F50D02B
:10095000B3F5202F08D8B3F5003F4ED0B3F5802F64
:1009600038D0002B32D0D8E0B3F5602F00F0C8802B
:10097000B3F5801F00F0C880B3F5402F4CD0CCE019
:10098000B3F5001F00F08B80B3F5001F0AD8B3F554
:10099000D01F00F08980B3F5F01F4CD0B3F5B01F25
:1009A0005CD0BAE0B3F5381F6AD0B3F5381F04D86D
:1009B000B3F5101F00F09F80AFE0B3F5401F00F0CB
:1009C0008680B3F5481F00F0A380A6E0FFF74AFC3D
:1009D000F860A5E0FFF746FCF860544BD3F80C2113
:1009E000534B13401B0A0133FA68B2FBF3F3FB606D
:1009F00096E0FFF737FCF86092E0FFF733FCF86011
:100A00004A4BD3F808214A4B13401B0A0133FA68BA
:100A1000B2FBF3F3FB6083E0FFF724FCF860434B89
:100A2000D3F8143103F4F8531B0A0133FA68B2FB0C
:100A3000F3F3FB6074E03F48FFF772FEF8606FE08D
:100A40003D48FFF76DFEF860384BD3F8303103F0C6
:100A500003031A46FB68D340FB6061E03548FFF7AB
:100A60005FFEF860314BD3F8203103F00F031846D6
:100A7000FFF79EFC0246FB68B3FBF2F3FB604FE01E
:100A80002C48FFF74DFEF860284BD3F8203103F0D7
:100A900030031B091A46FB68D340FB6040E027483F
:100AA000FFF73EFEF8603BE02448FFF739FEF860B0
:100AB0001E4BD3F8283103F030031B091846FFF70B
:100AC00077FC0246FB68B3FBF2F3FB6028E01B48AF
:100AD000FFF726FEF860154BD3F8283103F4407376
:100AE0001B0A04331846FFF763FC0246FB68B3FB9E
:100AF000F2F3FB6014E01048FFF712FEF8600FE01D
:100B0000FFF7ECFCF8600BE0FFF7C2FCF86007E0D1
:100B10000020FFF703FDF86002E00023FB6000BF48
:100B2000FB6818461037BD4680BD00BF00400E4030
:100B300000FF010002001E00050024000300200049
:100B400080B584B000AF786039607B681B0903F022
:100B50000F03FB60FB68013B092B00F2088101A237
:100B600052F823F08D0B0000D90B00006F0D000030
:100B7000F10B00006F0D00006F0D00000D0C000068
:100B8000550C0000D50C0000450D0000FFF74AFD94
:100B90007948FFF74BFCFFF759FE7849774BD3F8BC
:100BA000003123F4F8523B681B021343C1F80031B3
:100BB000FFF72CFBB860FFF72BFC0346B86819461B
:100BC000FFF750FD6E48FFF7B3FE03461846FFF7E8
:100BD0002DFCFFF741FECBE06849684BD3F8143198
:100BE00023F4F8523B681B021343C1F81431BFE0F1
:100BF0006249624BD3F80C3123F4FF3323F4807342
:100C00003A6812021343C1F80C31B1E0FFF70AFD54
:100C10005948FFF70BFC5949584BD3F8083123F4D6
:100C2000FF3323F480733A6812021343C1F808318A
:100C3000FFF7ECFAB860FFF7EBFB0346B86819461C
:100C4000FFF710FD4E48FFF773FE03461846FFF707
:100C5000EDFB8DE07B684B4A934215D04A4A9342A4
:100C600024D04A4A934200D033E04FF48020FFF76B
:100C7000D1FD4249414BD3F8303123F003023B68A8
:100C80001343C1F8303124E03868FFF79FFB386028
:100C90000420FFF7BFFD3949384BD3F8203123F04A
:100CA0000F023B681343C1F8203112E03868FFF7A8
:100CB0008DFB38600420FFF7ADFD30492F4BD3F892
:100CC000203123F030023B681B011343C1F820316F
:100CD00000BF4DE07B682E4A934203D02D4A9342D9
:100CE00013D02EE03868FFF771FB38604020FFF723
:100CF00091FD2249214BD3F8283123F030023B6883
:100D00001B011343C1F828311BE03B687F2B03D83C
:100D10003B680E2B00D900BF3868FFF757FB03462E
:100D2000043B3B604020FFF775FD1449134BD3F89B
:100D3000283123F440723B681B021343C1F8283169
:100D400000BF15E07B68114A934200D00EE04FF4DB
:100D50008020FFF75FFD0949084BD3F8303123F0BD
:100D600003023B681343C1F8303100BF00E000BF0D
:100D70001037BD4680BD00BF0148E80100400E406D
:100D800000250A008006160080162E00A009140017
:100D900090171A009027300080B485B000AF7860BB
:100DA0000123FB737B6803F00F03BB60BB68013B4F
:100DB000072B00F2C48001A252F823F0DD0D0000E1
:100DC000330E0000630E00003F0F0000A90E00006C
:100DD000D90E00003F0F0000FD0E00005D4BD3F860
:100DE000943003F00703023B052B1ED801A252F8F2
:100DF00023F000BF190E0000130E00000D0E0000BE
:100E00001F0E00002B0E0000250E00000223FB73B6
:100E10000EE00323FB730BE00423FB7308E00B23BA
:100E2000FB7305E00C23FB7302E00523FB7300BF9B
:100E300088E0484BD3F8803003F00703022B06D03C
:100E4000042B07D0012B08D10323FB7308E00223F6
:100E5000FB7305E00A23FB7302E00123FB7300BF71
:100E600070E03C4BD3F8843003F00703013B032BC5
:100E700016D801A252F823F0890E00008F0E000050
:100E80009B0E0000950E00000323FB730BE0022372
:100E9000FB7308E00A23FB7305E00623FB7302E003
:100EA0000123FB7300BF4DE02A4BD3F8883003F0D9
:100EB0000703022B06D0042B07D0012B08D10323F4
:100EC000FB7308E00223FB7305E00A23FB7302E0D7
:100ED0000123FB7300BF35E01E4B1B6F03F00103C2
:100EE000002B04D0012B05D10923FB7305E0072358
:100EF000FB7302E00123FB7300BF23E0154BD3F823
:100F00005C3103F03003102B0CD0102B02D8002BD7
:100F100005D010E0202B08D0302B09D00BE00123A6
:100F2000FB730BE00723FB7308E00423FB7305E06E
:100F30000823FB7302E00123FB7300BF02E00023E0
:100F4000FB7300BFFB7B18461437BD465DF8047B7E
:100F5000704700BF00400E4080B58AB000AF786097
:100F60000B46FB7003237B62032387F823300023A7
:100F7000BB6100237B617B68112B19D1FB78042BAB
:100F800003D1FFF7A7F978610BE0FB78052B08D1B7
:100F900000F05AF90246A44B9A4202D900F054F9E3
:100FA00078617B69002B03D07869002100F02CFE6A
:100FB0007B6803F00F033B613B69013B072B00F2A9
:100FC000298101A252F823F0E90F0000DD10000092
:100FD000EF10000015120000E11000008511000064
:100FE00015120000A3110000FB78023B0A2B00F24F
:100FF000138101A252F823F02510000031100000E7
:101000003D1000004F1000001912000019120000DE
:1010100019120000191200001912000061100000DE
:101020006D10000004237B62002387F8233023E047
:1010300003237B62012387F823301DE002237B62B8
:10104000022387F823307948FFF7F0F914E00123F1
:101050007B62032387F823307448FFF7E7F90BE03E
:1010600005237B62032387F8233005E007237B6297
:10107000062387F8233000BF97F82330062B06D0CD
:1010800097F8233018460121012200F0B3F9FFF749
:10109000C9FAFFF7DBFB7B69002B01D0FFF7AAF948
:1010A000634A7B6A53676348FFF742FC034618466E
:1010B000FFF7BCF9FFF7AAF8F860FFF7A9F90346B4
:1010C000F8681946FFF7CEFA7B69002B03D10020A0
:1010D000012100F099FDFFF7BFFBA2E0564BBB6179
:1010E000BB69002B01D0BB6900E0544BBB61BB69FD
:1010F000002B01D0BB6900E0514BBB61FB78013B89
:10110000092B00F28B8001A252F823F03511000068
:101110003B1100004B1100001D1200001D120000C9
:101120005B1100001D1200001D1200001D120000C6
:10113000771100000023FB6120E000200121012243
:1011400000F058F90223FB6118E00120012101227F
:1011500000F050F90123FB6110E0FFF757F8034658
:101160001846FFF763F9374802210122FFF7F4F828
:101170000323FB6102E00423FB6100BFBB69FA6942
:101180001A604EE0FB78072B02D0092B04D048E010
:10119000274B00221A6703E0254B01221A6700BF84
:1011A0003FE0FB78013B072B3AD801A252F823F02D
:1011B000D11100002112000021120000E7110000EF
:1011C0002112000021120000D7110000F7110000C9
:1011D0000023FB6112E004200121012200F00AF942
:1011E0000123FB610AE002200121012200F002F943
:1011F0000223FB6102E00323FB6100BF0C490C4B9F
:10120000D3F85C3123F03002FB691B011343C1F8B2
:101210005C3106E000BF04E000BF02E000BF00E078
:1012200000BF2837BD4680BD002D31010148E801CF
:1012300000400E4000250A0080400E4088400E40CD
:1012400084400E40B0400E4080B400AF034B1B689A
:101250001846BD465DF8047B704700BF0C000020B7
:1012600080B584B000AF78600B46FB701346BB704E
:10127000BB78002B01D0244B1B6800237B60234BE1
:101280005A6A7B6843F04053DB431340FB60FB78B2
:10129000002B02D04FF0805200E000227B681A43FE
:1012A000BB78002B02D04FF0005300E00023134323
:1012B000FA681343FB60FFF70DF8B860B8680121C6
:1012C00000F0A2FC7B68002B02D1BB78002B09D078
:1012D000FFF79EF80346B8681946FFF7C3F9B868E8
:1012E000FFF7A4F8FB78002B02D1BB78002B04D0C9
:1012F00002200121012200F07DF8044AFB685362BC
:101300001037BD4680BD00BF00300E4000400E408B
:10131000B0B584B000AF78601120FFF73DFD02202A
:101320000021012200F066F87B685B7883F00103FE
:10133000DBB2002B0ED07B689B7883F00103DBB21D
:10134000002B07D07B68DB7883F00103DBB2002B36
:1013500000D000BF0023FB607B681B7C022B01D107
:101360000123FB602149214B5B6A23F00102FB68EA
:1013700013434B627B681B781D4808211A46FEF711
:10138000EBFF1A497B689B88DB027A68527A134329
:10139000CB62164D154B1B6B03F07F627B68DB88BD
:1013A000DB0213437A68927A1A437B681B7ADB016B
:1013B00042EA03047B681B7A1846FFF773F9034679
:1013C00023432B6309497B685B7B1A037B689B7B08
:1013D0001B0113437A68D27B1A437B681B7B1B0477
:1013E00013434B631037BD46B0BD00BF00400E40F5
:1013F00024400E4080B588B000AF0346FB710B4619
:10140000BB7113467B71FB79042B00F2B88001A2FB
:1014100052F823F0711400005F1400003B14000028
:10142000291400004D14000001237B6102233B615D
:101430000123FB610023BB6125E004237B610823BA
:101440003B610323FB610223BB611CE010237B6132
:1014500020233B610523FB610423BB6113E0402390
:101460007B6180233B610723FB610623BB610AE0AC
:101470004FF480737B614FF400733B610923FB6180
:101480000823BB6100BFBB79002B5BD00023FB733B
:10149000FB79022B11D1FFF721F90346002B0CD168
:1014A000394BDB6B0123FB73384B5B6A03F00103A1
:1014B000002B02D00120FFF71FF9344A7B69136625
:1014C00000BF3348B969FEF75DFF0346002BF8D033
:1014D0007B79002B35D000BF2D48F969FEF752FF0C
:1014E0000346002BF8D0FB79022B2AD1FB7B002B83
:1014F00027D0264B5B6A03F00103002B05D00220A6
:101500002021012200F04AF903E00220002100F02E
:10151000FBF8022000F03EF8B86002200021012212
:10152000FFF768FF0220B96800F06EF8174A7B6980
:10153000136600BF1648F969FEF724FF0346002B27
:10154000F8D01DE0114A3B69136600BF0F4BD3F87A
:101550009030BA69012101FA02F21340002BF5D153
:101560007B79002B0CD000BF084BD3F89030FA6980
:10157000012101FA02F21340002BF5D100E000BF77
:101580002037BD4680BD00BF00300E4000400E40F9
:1015900090400E4080B485B000AF0346FB71FB79EC
:1015A000013B032B23D801A252F823F0BD15000004
:1015B000E1150000C9150000D5150000114B1B6A8C
:1015C000C3F30803FB6015E00E4B1B6903F07F03B8
:1015D000FB600FE00B4B9B6903F07F03FB6009E0AE
:1015E000084BD3F89C30C3F30A03FB6002E00023EE
:1015F000FB6000BFFB6818461437BD465DF8047BEE
:10160000704700BF00400E4080B584B000AF034675
:101610003960FB71FB79013B032B6AD801A252F8B8
:1016200023F000BF35160000B71600006316000057
:101630008D1600003B68C3F308033B6000BF2F48D2
:101640001A21FEF79FFE0346002BF8D12C492C4BA4
:101650001B6A23F4FF7323F001033A6813430B6200
:1016600048E03B6803F07F033B6000BF234818213C
:10167000FEF788FE0346002BF8D12149204B1B6959
:1016800023F07F023B6813430B6133E03B6803F0B8
:101690007F033B6000BF19481921FEF773FE034624
:1016A000002BF8D11649164B9B6923F07F023B684B
:1016B00013438B611EE0124BD3F89030104A104B4D
:1016C0005B6A23F0300343F0100353623B6803F47A
:1016D000F063DB091846FEF7E5FFF8600849084BA0
:1016E0001A6B084B13403A681A43FB6813430B63A9
:1016F00000E000BF1037BD4680BD00BF40410E4036
:1017000000400E4000F8FF0F80B584B000AF0346E4
:101710000A46FB711346BB71FEF7E0FF0346002B40
:1017200003D14FF44003FB6016E0BB79202B04D0BB
:10173000302B0AD0002B04D00BE04FF40003FB60E9
:101740000AE04FF44003FB6006E04FF44003FB6007
:1017500002E0104BFB6000BF00BF0F4BD3F890209E
:10176000FB681A40FB689A42F7D1FB6803F48003D8
:10177000002B0AD0084BD3F8A03003F48063002B71
:1017800014BF01230023DBB200E001231846103709
:10179000BD4680BDFF33E10700400E4080B582B0FA
:1017A00000AF0346FB710B46BB7113467B71FB799F
:1017B000022B00D016E0BB79002B07D00C4B4FF466
:1017C0008062C3F8A8200A4ABB7953667B79002B54
:1017D00007D0FA79BB7910461946FFF795FF034603
:1017E00001E000BF012318460837BD4680BD00BF99
:1017F00000400E4080B400AF72B6BD465DF8047B79
:10180000704700BF80B400AF62B6BD465DF8047B90
:10181000704700BF80B483B000AFEFF310833B602C
:101820003B687B6072B67B6818460C37BD465DF836
:10183000047B704780B483B000AF78607B68002B76
:1018400000D162B60C37BD465DF8047B704700BF1F
:1018500080B500AFFEF7DAFC80BD00BF80B487B072
:1018600000AFF860B9607A60FB6803F10473DA00D6
:10187000BB6813449B007B617B697A681A601C37E4
:10188000BD465DF8047B704780B485B000AF7860DA
:1018900039607B6803F10473DA003B6813449B00F2
:1018A000FB60FB681B6818461437BD465DF8047B77
:1018B000704700BF80B500AF00BF04481221FFF79A
:1018C000E3FF0346002BF8D180BD00BF04300E407B
:1018D00080B500AFFFF7EEFF034B5B6803F44033C6
:1018E0001B0CDBB2184680BD00300E4080B483B0C4
:1018F00000AF7860034A7B68D3620C37BD465DF861
:10190000047B704700300E4080B400AF034B5B6A2D
:101910001846BD465DF8047B704700BF00300E409E
:1019200080B400AF034B0022C3F88021BD465DF8B0
:10193000047B704700400E4080B400AF044B45F676
:101940000E02C3F88021BD465DF8047B704700BFDE
:1019500000400E4080B483B000AF0346FB71FB79BA
:10196000C3F102031A461023934018460C37BD46B4
:101970005DF8047B704700BF90B585B000AF0346AB
:10198000FB71FB79002B1AD1474BD3F89030474AB3
:1019900013601120FFF700FA03461A46444B1A70F1
:1019A000FFF788FF434B5B6803F440331B0CDAB24C
:1019B000414B1A703C4B1B69404A136070E03D4C30
:1019C0003D4B1B781846FFF7C5FF03462361364B96
:1019D000D3F8803103F00103FB60FFF7ADFF002374
:1019E000BB60324B1B6803F00103BA681343BB6052
:1019F0002E4B1B6803F01003BA681343BB602B4BDC
:101A00001B6803F04003BA681343BB60274B1B6895
:101A100003F00403BA681343BB60244B1B6803F450
:101A20008073BA681343BB601F4ABB681366FFF735
:101A300041FF204B1B6803F01003002B18D000BFA0
:101A4000194BD3F8403103F08073002BF8D1164ABC
:101A50001A4B1B681361164B1B78052B08D1184BCA
:101A60001C68FFF735FF034620461946FEF7FAFDCE
:101A70000F4B1B78052B05D00D4B1B7811201946F9
:101A8000FFF76AFA094B1B6803F00103002B02D130
:101A9000054B02221A66FB68002B01D0FFF740FFBE
:101AA0001437BD4690BD00BF00400E40A800002086
:101AB000AC00002000300E40AD000020B00000203F
:101AC0000C00002080B582B000AFFFF7F3FE104B92
:101AD0001B6803F440731B0A7B600D4B5B6803F4C7
:101AE00040331B0C3B607A683B689A4206D9084A2F
:101AF000074B1B6843F01003136005E0044A044BD6
:101B00001B6823F0100313600837BD4680BD00BF7B
:101B100000300E4080B483B000AF0B4B1B6803F065
:101B20001003002B0BD0094B1B6903F4F8131B0C9B
:101B30007B607B68082B02D1054B064A1A600C3784
:101B4000BD465DF8047B704700300E4000400E40FB
:101B50000C000020C0EA210180B582B000AF03462E
:101B6000FB71FB79002B02D00020FFF705FFFFF788
:101B7000A9FF0A4A094B1B6943F00403136130BFF4
:101B8000FB79002B03D00120FFF7F6FE03E0FFF7FF
:101B9000C1FFFFF75DFE0837BD4680BD00ED00E0E8
:101BA00080B584B000AF0346FB71FB79002B02D0F7
:101BB0000020FFF7E1FEFFF785FF114BD3F88031DE
:101BC00003F00103FB60FFF7B7FEFB68002B01D0B9
:101BD000FFF7A6FE0B4A0B4B1B6943F0040313618E
:101BE00030BFFB79002B03D00120FFF7C5FE03E0D7
:101BF000FFF790FFFFF72CFE1037BD4680BD00BFFA
:101C000000400E4000ED00E080B584B000AF786089
:101C10000B46FB70154BD3F8003103F4F8531B0A45
:101C20000133BB607B68002B07D1FEF71BFB02462C
:101C3000BB6803FB02F3FB6001E07B68FB600C4BBD
:101C40001B78002B09D0FB680A4A934205D8FB7821
:101C50000220194600F010F804E0FB780020194635
:101C600000F00AF81037BD4680BD00BF00400E40AE
:101C7000A4000020FF2C310190B587B000AF0346CF
:101C80000A46FB711346BB711A4BD3F8003103F4BB
:101C9000F8531B0A01337B61FEF7E4FA3861FFF762
:101CA00017FE0346FB73FA7BFB799A4200D11EE0D4
:101CB0003B697A6902FB03F3BB60FB79022B03D11A
:101CC00038690221FEF7CEFC0B4CFB791846FFF772
:101CD00041FE03462361BB79002B01D0FFF7EAFDEB
:101CE000FB79002B03D138690021FEF7BBFC1C37C0
:101CF000BD4690BD00400E4000300E4080B483B021
:101D000000AF78600A490A4B1B6823F440727B6875
:101D10005B781B0213430B607B685B78022B01D15D
:101D2000044B5B6A0C37BD465DF8047B704700BF0F
:101D300000300E4000400E4080B400AF0123184632
:101D4000BD465DF8047B704780B582B000AF0C4A99
:101D50000B4BDB6E43F08073D3660A480021FFF71C
:101D600093FD78607B68002B03D0042000F0B4FC66
:101D700002E0002000F0B0FC0837BD4680BD00BF87
:101D800000300E404C300E4080B48BB000AF0123C9
:101D90007B627B6A1B053B62314BDB6C03F4706337
:101DA0001B0AFB612F4B1B881A462E4B1B882833BE
:101DB0005B08134403F12801FB695A1C13469B007E
:101DC0001344B1FBF3F3013BBB61BB697B610723A8
:101DD0003B613A697B69934228BF1346BB61BB698B
:101DE0001B06BB611E481E4BDB6C23F0EE62B9691B
:101DF0003B6A0B431343C3641B4B1B881BB2002B72
:101E000028DB194B1B88FB81FA89FB8928335B0887
:101E1000134403F12802FB6901335900FB690133C4
:101E20005B080B44B2FBF3F3BB60BB687B6007232A
:101E30003B603A687B68934228BF1346BB60BB682F
:101E40001B01BB600649064B1B6D23F07002BB688B
:101E500013430B652C37BD465DF8047B704700BF0C
:101E600000300E409C000020A000002080B483B011
:101E700000AF78600B467B807B689AB2044B1A8077
:101E8000044A7B8813800C37BD465DF8047B70479D
:101E90009C000020A000002080B483B000AF034667
:101EA000FB71FB79002B02D0012B04D007E0064B1D
:101EB000064A9A6503E0044B054A9A6500BF0C3751
:101EC000BD465DF8047B704700300E4077402057D8
:101ED000372110B780B485B000AF0346FB710B46C5
:101EE000BB7113467B712E4BD3F88031FB60BB79FD
:101EF000032B1FD801A252F823F000BF0D1F0000D2
:101F0000151F0000211F00002D1F0000FB68DBB221
:101F1000FB6011E0FB6803F47F431B0AFB600BE0EE
:101F2000FB6803F47F031B0CFB6005E0FB681B0EE2
:101F3000FB6001E000232CE07B79002B11D1FB68D2
:101F40001B03FB60FB6823F47043002B01D00023CC
:101F50001FE01449134BDB6E23F47042FB681343FC
:101F6000CB667B79012B13D1FB681B03FB60FB68FD
:101F700023F47043002B01D000230AE00949094BE8
:101F8000D3F8EC3023F47042FB681343C1F8EC3013
:101F9000012318461437BD465DF8047B704700BF27
:101FA000B081E00F00300E4080B489B000AFF8601F
:101FB000B96011461A460B46FB711346BB710023EC
:101FC000FB610023BB61BB791A02FB79002B01D0B6
:101FD000012300E0002313437B617B6940F201127F
:101FE00093422BD0B3F5817F07D2012B19D0012B5F
:101FF0004BD3B3F5807F55D07BE040F20122934272
:1020000029D040F20122934203D8B3F5007F56D085
:102010006FE0B3F5407F5FD040F20132934227D0AA
:1020200067E0394BD3F87431FB61FB6903F47F43FC
:102030001B0ABB61FB69DBB2FB615AE0324BD3F890
:102040007431FB61FB691B0EBB61FB6903F47F0309
:102050001B0CFB614DE02C4BD3F87831FB61FB6925
:1020600003F47F431B0ABB61FB69DBB2FB6140E009
:10207000254BD3F87831FB61FB691B0EBB61FB6913
:1020800003F47F031B0CFB6133E01F4BD3F86C316F
:10209000FB61FB6903F47F431B0ABB61FB69DBB295
:1020A000FB6126E0184BD3F86C31FB61FB691B0E1A
:1020B000BB61FB6903F47F031B0CFB6119E0124B4E
:1020C000D3F87031FB61FB6903F47F431B0ABB61EA
:1020D000FB69DBB2FB610CE00B4BD3F87031FB61A9
:1020E000FB691B0EBB61FB6903F47F031B0CFB61E7
:1020F00000BFFB68FA691A60BB68BA691A602437C6
:10210000BD465DF8047B7047B081E00F80B584B0B8
:1021100000AF0346FB7100BF364B9B6F03F001031A
:10212000002BF9D1334B1B6C03F00303FB60FB68FE
:10213000002B04D030480D210122FFF78FFBFB68F4
:10214000DBB2FA799A4209D1FB79002B05D12A48F2
:102150000D210022FFF782FB48E047E0FB68032BDC
:1021600002D0FB68002B20D1FB79022B02D0FB7937
:10217000012B1AD14FF40020FFF7B8FB00BF1D4B15
:102180009B6F03F00103002BF9D11A4A194B1B6C0A
:1021900023F0030343F00103136400BFFFF7B4FB14
:1021A000034603F40023002BF8D000BF114B9B6FB4
:1021B00003F00103002BF9D10E490E4B1B6C23F0E9
:1021C0000302FB7913430B6400BF0A4B9B6F03F0C0
:1021D0000103002BF9D1FB79002B14BF012300234D
:1021E000DBB205480D211A46FFF738FB1037BD4614
:1021F00080BD00BF00300E4054300E4080B584B02A
:1022000000AF7860484B02229A63474B9B6B03F008
:102210000F03022B01D0002381E0FFF78DFD7B68C7
:102220005B78012B02D07B685B78022B7B68DB88B4
:102230004A2B02D80023FB6015E07B68DB88B3F5EE
:10224000FA7F03D24FF08053FB600CE07B68DB88A1
:1022500040F6C312934203D84FF00053FB6002E0F4
:102260004FF04053FB6030482F4BDB6C23F0405362
:1022700023F001037A68928912B2002A01DB01215E
:1022800000E00021FA680A431343C364264A264B40
:10229000D3F8EC3043F44073C2F8EC30FFF754FD50
:1022A0007B681B891A467B689B891BB210461946BE
:1022B000FFF7DCFD7B689A881C4B1A807B689B8843
:1022C000184600F09DF97B689B7B1846FFF7E4FDFC
:1022D0007B685B8818460121012200F02BF8034639
:1022E00083F00103DBB2002B01D0002317E00E4A7C
:1022F0000D4BDB6B43F48063D3637B685B781846DC
:10230000FFF704FF7B689B7A202B01D1012300E0BB
:102310000023074805211A46FFF7A0FA01231846B3
:102320001037BD4680BD00BF00300E409E0000202B
:102330003C300E4090B595B000AF78600B46FB7016
:102340001346BB700023FB6400237B6407F1240366
:1023500000221A60043300221A60043300221A603B
:10236000043307F1180300221A60043300221A60B4
:10237000043300221A60043307F10C0300221A60B0
:10238000043300221A60043300221A60043300234D
:102390003B810023BB727B68B3F5E16F06D37B689A
:1023A00040F6B832934201D8012300E0002387F8B9
:1023B000433097F8433003F0010387F8433097F830
:1023C000433083F00103DBB2002B01D000230FE187
:1023D0007B68B3F5E16F8CBF0123002387F842309F
:1023E00097F84230002B0AD04FF4E163FB6440F6CB
:1023F000B8337B647A6CFB6CD31ABB6409E04FF48E
:102400009663FB644FF4E1637B647A6CFB6CD31AD4
:10241000BB6497F84230002B0CD0774BD3F868316F
:102420003B623B6A1B0E7B613B6A03F47F031B0C20
:102430003B620BE0704BD3F868313B623B6A03F4BC
:102440007F431B0A7B613B6ADBB23B626B4BDB6CFD
:1024500003F040531B0FDBB23B723B7A07F11800CD
:1024600007F10C0197F84220FFF79EFD634BD3F86C
:10247000EC3003F440731B0ADBB27B727C7A07F109
:102480001803191D07F10C031A1D97F8423008466E
:1024900011461A462346FFF787FD7A68FB6CD31A6C
:1024A00079693A6A8A1A02FB03F2BB6CB2FBF3F356
:1024B000FB62FA6A3B6A1344FB627A68FB6CD31ACC
:1024C000F968BA698A1A02FB03F2BB6CB2FBF3F338
:1024D0007B627A6ABB6913447B627A68FB6CD31AAD
:1024E0003969FA698A1A02FB03F2BB6CB2FBF3F397
:1024F000BB62BA6AFB691344BB62FA6A7B699A429F
:1025000013D8FA6A3B6A9A420FD3BA6A3B699A4275
:102510000BD8BA6AFB699A4207D37A6AFB689A4277
:1025200003D87A6ABB699A4201D2002360E0BB7883
:10253000002B12D03149314BDB6D23F4FE4323F0E5
:102540000203FA6A12021A4397F84230002B01D0B4
:10255000022300E000231343CB65FB78002B46D019
:102560003B7A97F84220104619460022FFF7B2FC4A
:10257000034683F00103DBB2002B01D0002337E0D8
:102580007B7A97F84220104619460122FFF7A2FCF9
:10259000034683F00103DBB2002B01D0002327E0C8
:1025A0007B6AFB63BB6ABB63BA6BFB6B934238BF4E
:1025B00013467B627B6A7B63E7233B633A6B7B6BEF
:1025C000934228BF13467B620C490C4B5B6E23F48D
:1025D000FF7323F001037A6A52001A4397F84230DE
:1025E000002B01D0012300E0002313434B6601239D
:1025F00018465437BD4690BDB081E00F00300E4004
:1026000080B584B000AF78600023FB60314B1B6F56
:1026100003F00703BB602F4BDB6C03F00103002BBF
:1026200015D0BB68012B12D97B68132B02D8042369
:10263000FB600BE07B68132B05D97B68272B02D846
:102640000823FB6002E01023FB602DE02CE0214B0F
:10265000DB6C03F00103002B15D1BB68012B12D8F2
:102660007B68092B02D80423FB600BE07B68092BF5
:1026700005D97B68132B02D80823FB6002E01023E6
:10268000FB6011E010E0134BDB6C03F00103002B47
:102690000AD0BB68012B07D87B68272B02D80823F8
:1026A000FB6001E01023FB60FB68013BFB60FB6803
:1026B0001A02FB681B031343FB600649054BDB6CE6
:1026C00023F47F42FB681343CB64FFF75DFB1037B5
:1026D000BD4680BD00300E4080B584B000AF0346DB
:1026E000FB710F480021FFF7CFF8F860FB68002B63
:1026F00002D1FB79012B02D9FB68002B00D000BF6F
:102700000849084B1B6F23F00702FB7913430B6743
:10271000054B1B881846FFF773FF1037BD4680BD79
:102720004C300E4000300E409E00002080B485B03A
:1027300000AF786039607B6803F1C063FB60FB68C1
:102740003A681A601437BD465DF8047B704700BFD5
:1027500080B485B000AF786039607B6803F1806336
:10276000FB60FB683A681A601437BD465DF8047B6D
:10277000704700BF80B584B000AFF860B9607A6080
:10278000F868B968FFF7E4FFF8687968FFF7CEFFEB
:102790001037BD4680BD00BF80B582B000AF034694
:1027A0003960FB71FB79002B1CD0FB79012B19D010
:1027B000FB79022B16D0FB79032B13D0FB79042B6A
:1027C00010D0FB79052B0DD0FB79062B0AD0FB79B5
:1027D000072B07D0FB79082B04D0FB79092B01D0FC
:1027E000FB790A2BFA7913465B0013441B010C3367
:1027F00003F1804303F520433A68012101FA02F214
:1028000018461146FFF7A4FF0837BD4680BD00BF3C
:1028100080B582B000AF03463960FB71FB79002BB5
:102820001CD0FB79012B19D0FB79022B16D0FB7938
:10283000032B13D0FB79042B10D0FB79052B0DD083
:10284000FB79062B0AD0FB79072B07D0FB79082BE5
:1028500004D0FB79092B01D0FB790A2BFA791346B6
:102860005B0013441B010C3303F1804303F5204349
:102870003A68012101FA02F218461146FFF756FFA5
:102880000837BD4680BD00BF80B582B000AF0346AB
:102890003960FB71FB79002B1DD0FB79012B1AD01D
:1028A000FB79022B17D0FB79032B14D0FB79042B77
:1028B00017D0FB79052B0ED0FB79062B11D0FB79B5
:1028C000072B0ED0FB79082B05D0FB79092B02D002
:1028D000FB790A2B05D13B6823F00113002B00D1B3
:1028E00000BFFA7913465B0013441B0103F18043D8
:1028F00003F5204318464FF001113A68FFF73AFFFD
:102900000837BD4680BD00BF90B585B000AFB96047
:102910007B600346FB731346BB73FB7B002B1CD011
:10292000FB7B012B19D0FB7B022B16D0FB7B032BEF
:1029300013D0FB7B042B10D0FB7B052B0DD0FB7B36
:10294000062B0AD0FB7B072B07D0FB7B082B04D080
:10295000FB7B092B01D0FB7B0A2BBB7B002B0DD013
:102960007B68002B05D0FB7B1846B968FFF750FF4A
:1029700004E0FB7B1846B968FFF70EFFBB68072B26
:102980001CD82B4CFA7B2A48F97B0B465B000B4486
:102990001B0103445968BB689B0018460F23834002
:1029A000DB430B40B97BB868800081401943134674
:1029B0005B0013441B012344596024E01C4CFA7B48
:1029C0001B48F97B0B465B000B441B010344083397
:1029D0001968BB6803F18043083B9B0018460F232E
:1029E0008340DB431940B87BBB6803F18043083B5D
:1029F0009B0000FA03F3194313465B0013441B01C9
:102A0000234408331960BB7B002B0DD17B68002B5E
:102A100005D0FB7B1846B968FFF7FAFE04E0FB7BA4
:102A20001846B968FFF7B8FE1437BD4690BD00BF21
:102A300000A0004080B483B000AF786039607B684C
:102A40003A68DA630C37BD465DF8047B704700BF17
:102A500080B487B000AFF860B9607A60FB6803F1BA
:102A60000473DA00BB6813449B007B617B697A685E
:102A70001A601C37BD465DF8047B704780B485B092
:102A800000AF786039607B6803F1C063FB60FB686E
:102A90003A681A601437BD465DF8047B704700BF82
:102AA00080B485B000AF786039607B6803F18063E3
:102AB000FB60FB683A681A601437BD465DF8047B1A
:102AC000704700BF80B584B000AFF860B9607A602D
:102AD000F868B968FFF7E4FFF8687968FFF7CEFF98
:102AE0001037BD4680BD00BF80B588B000AFF8602C
:102AF000B9607A60FB707B68002B00D179E0FB78CD
:102B000003F00303FB70FB681B6823F44072FB684F
:102B10001A60FA68FB781B0210464FF440711A469F
:102B2000FFF7D0FFBB68002B10D1FB68324A9342FD
:102B300004D13248FDF7FCFEB86007E0FB68304A7C
:102B4000934203D12F48FDF7F3FEB8604FF0FF33F7
:102B5000BB61FB681B6803F00203002B11D0FB78FC
:102B6000012B07D0022B08D0002B00D008E0264B09
:102B7000BB6105E0254BBB6102E0254BBB6100BF9B
:102B800010E0FB78012B07D0022B08D0002B00D0DF
:102B900008E01D4BBB6105E01E4BBB6102E01E4B14
:102BA000BB6100BFFB781D4AD35C7B617B697A689F
:102BB00002FB03F33B613B69002B00D119E07B680A
:102BC000DB00BA68D21A3B6913445A1E3B69B2FB58
:102BD000F3F3013BFB61FB681B6803F00203002B6E
:102BE00004D0FB69002B01D10123FB61FA69FB686A
:102BF0001A612037BD4680BD00C00040008204003D
:102C000000C400400092040080841E00404B4C0031
:102C1000809FD50040548900002D3101F04A00000A
:102C200080B582B000AF78600B46FB707B68094AC4
:102C3000934203D07B68084A934200D100BF7A6870
:102C4000FB78104600211A46FFF702FF0837BD4601
:102C500080BD00BF00C0004000C4004080B582B00D
:102C600000AF786039607B68164A934203D07B6876
:102C7000154A934200D100BF7B6800221A6478682D
:102C80001249FFF7D7FE7A683B685B78002B01D0CA
:102C9000002300E00123104601211A46FFF7D8FE69
:102CA0003B6859683B689A683B681B7B7868FFF70C
:102CB0001BFF3B681B7878681946FFF7B1FF0837A0
:102CC000BD4680BD00C0004000C40040FFFF0700BB
:102CD00080B483B000AF0346FB7197F90730002B37
:102CE0000BDB084997F907305B09FA7902F01F02FC
:102CF000012000FA02F241F823200C37BD465DF8AE
:102D0000047B704700E100E080B483B000AF03466D
:102D1000FB7197F90730002B0CDB094997F9073055
:102D20005B09FA7902F01F02012000FA02F2603317
:102D300041F823200C37BD465DF8047B704700BF87
:102D400000E100E080B483B000AF03463960FB715E
:102D500097F90730002B0ADB0D4997F907303A68DD
:102D6000D2B25201D2B20B4483F800230AE00949DF
:102D7000FB7903F00F03043B3A68D2B25201D2B29E
:102D80000B441A760C37BD465DF8047B704700BFD4
:102D900000E100E000ED00E080B485B000AF7860B5
:102DA00039607B6803F18063FB60FB683A681A60F6
:102DB0001437BD465DF8047B704700BF80B584B012
:102DC00000AF78601A480121FDF74CFD7B681B7845
:102DD0001B06FB607B685B781B027A689278134362
:102DE0001A46FB681343FB60124AFB681360114BE1
:102DF00000221A620F4B0022DA620E4B00225A6345
:102E00000C4B4FF00042DA660A4B4FF0FF329A66E5
:102E10000920FFF779FF7B68DB7809201946FFF767
:102E200091FF0920FFF754FF1037BD4680BD00BF5A
:102E300000550A0000200E4080B588B000AFF86051
:102E4000B9607A60FB68DBB21A4601239340BB612C
:102E50004C48BB681968FA6813465B0013441B01B1
:102E60000344803319604749BB685B7B1846FA68A6
:102E700013465B0013441B010B448833186041491F
:102E8000BB689B7A1A04BB68DB7A1B051A43BB68D4
:102E90001B7B5B0513431846FA6813465B0013441B
:102EA0001B010B448033586036487B6823F00301D4
:102EB000FA6813465B0013441B01034498331960FE
:102EC000304ABB699366FEF7A5FC78612D492D4B0E
:102ED000DA6EBB691343CB66BB681B7A002B05D047
:102EE0002849284B5A6BBB6913434B63BB685B7A19
:102EF000002B05D02349234BDA6ABB691343CB620D
:102F0000204B1B68FB61BB681B79002B08D0BB689A
:102F10001B79DB431B0263F47F43FA691340FB61B7
:102F2000BB685B79002B06D0BB685B791B021A4635
:102F3000FB691343FB61BB689B79002B07D0BB681F
:102F40009B79DB4363F0FF03FA691340FB61BB68C5
:102F5000DB79002B05D0BB68DB791A46FB6913438C
:102F6000FB61084AFB6913600748B969FFF714FF62
:102F7000044ABB69D3637869FEF75CFC2037BD4621
:102F800080BD00BF00200E4028200E4080B487B0D6
:102F900000AFF860B9607A60FB68114A934208D1CB
:102FA000BB68012B05D87B681B0C1B04002B00D1D0
:102FB00000BFBB68002B02D0012B04D00AE0FB68E5
:102FC00010337B6103E0FB6814337B6100BF7B69D6
:102FD0007A681A601C37BD465DF8047B704700BFF5
:102FE0000060044080B483B000AF78600B46FB7093
:102FF000FB78002B03D07B6801225A6002E07B68DB
:1030000002225A600C37BD465DF8047B704700BF52
:1030100080B485B000AF786039600023FB603B6806
:103020001B7883F00103DBB2002B08D07B689B6820
:1030300003F00103002B02D07B6802225A603B6838
:103040005B78002B03D0FB6843F48053FB603B6844
:103050009B78002B03D13B68DB68002B07D0FB6813
:1030600043F40073FB603B68DA687B681A613B6875
:10307000DB78002B03D0FB6843F48073FB603B6874
:103080001B79002B03D0FB6843F04003FB603B68D7
:103090005B79002B03D0FB6843F08003FB603B6847
:1030A0009B799B001A46FB681343FB603B68DB7906
:1030B0001B011A46FB681343FB603B681B7A1A46E8
:1030C000FB681343FB607B68FA681A603B681B78F7
:1030D000002B08D07B689B6803F00103002B02D112
:1030E0007B6801225A601437BD465DF8047B704747
:1030F00080B483B000AF786039607B681B6C03F0EC
:103100000103002B00D006E000BF7B685A6C3B68CF
:103110001340002BF9D10C37BD465DF8047B704796
:1031200080B586B000AFF860B9607A60BB68002BEC
:103130000BD1FB68124A934206D1124B7B6178692E
:10314000FDF7F6FBB86000E016E0BB685A017B684B
:10315000B2FBF3F33B613B69203B3B613B69DB0026
:103160003B613A69084B13403B61F8680421FFF763
:10317000BFFFFB683A69DA601837BD4680BD00BF03
:1031800000A0044090171A00F8FF010080B584B039
:1031900000AF78600B46FB70FB78DB43FB60FB689D
:1031A00003F00503FB60FB685B00FB60FB78FA68DB
:1031B0001343FB6078680221FFF79AFF7B68FA6887
:1031C0005A601037BD4680BD80B483B000AF7860D0
:1031D0000B46FB70FB78002B08D000BF7B685B6C54
:1031E000002BFBD17B6801221A6402E07B6800227D
:1031F0001A640C37BD465DF8047B704780B582B019
:1032000000AF7860396078680221FFF771FF7B6852
:103210000A225A6078680121FFF7D6FF7B681B6895
:1032200023F01C033A68127B13433A68527B134322
:103230003A68927B1A437B681A603B685A683B681D
:103240009B68786811461A46FFF76AFF3B681B784F
:103250001A467B685A6078680021FFF7B5FF083787
:10326000BD4680BD80B582B000AF274A3B1D1068C7
:103270001860264B00221A60043300221A600433BF
:1032800000221A60043300221A6004331F4A138894
:10329000062161F30E1313801C4A937843F0100348
:1032A00093701A4AD37843F03003D370184A174BFF
:1032B0005A60164B174A9A60174B184A1A60164BF9
:1032C00000221A71144B00225A71134B00229A717A
:1032D000114B0022DA71104B00221A720E4B0022A1
:1032E0005A720D4B00229A720B4B0022DA720A4B73
:1032F00000221A73084B00225A733B1D1846FFF731
:103300005DFD0837BD4680BDF44A0000B8000020CE
:10331000DC00002028A00440C800002001001000AC
:1033200080B582B000AF0B4B1B6E7B60094A7B6897
:103330009366FEF75FFA7B68002B05D0064B1B688F
:1033400043F08003044A1360FEF75CFA0837BD4679
:1033500080BD00BF00200E40E400002080B483B098
:1033600000AF0346FB7197F90730002B0BDB0849D0
:1033700097F907305B09FA7902F01F02012000FA81
:1033800002F241F823200C37BD465DF8047B7047FC
:1033900000E100E080B584B000AF00233B70002363
:1033A0007B604FF41653BB6000233B7300237B7399
:1033B0000023BB733B461A481946FFF71FFF00BFA7
:1033C000174B5B6C002BFBD1154B41F212229A6517
:1033D000134B03225A65124B3F221A61104B2322D2
:1033E0005A610F4A0E4B5B6843F0100353600C4A5E
:1033F0000B4B1B6843F480731360094A084B9B6BAB
:1034000043F480639363064A054B9B6B43F400735C
:1034100093631620FFF7A2FF1037BD4680BD00BFA3
:1034200000A0044080B400AF00BF064B5B6C002BD3
:10343000FBD1044BDB69DBB21846BD465DF8047B6B
:10344000704700BF00A0044080B582B000AF1E4BA3
:10345000DA6A1D4B9B6B13407B601B4A7B6853638E
:10346000FEF7C8F97B6803F00103002B05D0174B6A
:103470001B6843F04003154A13607B6803F4007334
:10348000002B0BD0114B1B6843F004030F4A136051
:103490000D4A0D4B5B6B43F4007353637B6803F47D
:1034A0008063002B0BD0094B1B6843F00803074ACD
:1034B0001360054A044B5B6B43F480635363FEF770
:1034C000A1F90837BD4680BD00A00440E4000020FB
:1034D00080B489B000AF78600023FB610023BB613A
:1034E00001233B610323FB60D7ED017AF5EEC07A3F
:1034F000F1EE10FA05DD514ABB6913442B221A7014
:103500000AE04E4ABB6913442D221A70D7ED017AA6
:10351000F1EE677AC7ED017ABB690133BB6108E060
:103520003A6913469B0013445B003B61FB68013B17
:10353000FB603B6907EE903AB8EEE77AD7ED017A87
:10354000B4EEE77AF1EE10FAEAD40023FB6108E06A
:10355000BA69FB691344394A3021D154FB690133FC
:10356000FB61FA69FB689A42F2DBBA69FB691344B2
:10357000BB61FB68032B07D1304ABB6913442E2281
:103580001A70BB690133BB61D7ED017AB2EE047AE0
:1035900067EE877AFDEEE77A17EE903A7B612DE0D1
:1035A0007A693B6992FBF3F3BB60BB683033BB6065
:1035B000BB68D9B2214ABB6913440A461A70BB6979
:1035C0000133BB617B693A6993FBF2F2396901FB14
:1035D00002F29B1A7B613B69194A82FB031292102B
:1035E000DB17D31A3B613B69012B07D1134ABB6937
:1035F00013442E221A70BB690133BB613B69002B57
:10360000CEDC104B1B78002B06D0BB695A1CBA616C
:103610000A4A4321D15405E0BB695A1CBA61074AE2
:103620004621D154054ABB69134400221A7000BFD9
:103630002437BD465DF8047B704700BFDC000020E6
:1036400067666666B500002080B483B000AF78601E
:103650007B681B783F2B00D031E07B6801331B78FF
:10366000642B05D07B6801331B78442B00D026E007
:103670007B6803331B78232B00D020E07B68023368
:103680001B78632B04D07B6802331B78432B03D158
:103690000D4B01221A700EE07B6802331B78662BFB
:1036A00004D07B6802331B78462B03D1064B0022E3
:1036B0001A7000E003E0054B01221A7000BF0C37BE
:1036C000BD465DF8047B7047B5000020B4000020C3
:1036D00080B500AF032001210122FDF78BFE1E48BB
:1036E0000521FDF739FC1C480121FDF7BBF801203D
:1036F00000210022FDF7B4FD012000210022FDF78A
:1037000079FE052000210022FDF774FE0020012132
:103710000122FDF76FFE11480221FDF71DFC104844
:103720000221FDF719FC0C480121FDF79BF80D481B
:103730000121FDF797F80C480121FDF793F80B489C
:103740000121FDF78FF80A480121FDF78BF80948A0
:103750000121FDF787F880BD4041050002001E00F1
:103760000300200000250A0000350A00800616002C
:103770000082040090171A0080B500AF05204FF0BA
:103780000111FFF781F80520042104220023FFF72F
:10379000BBF805204FF00111FFF776F80520052151
:1037A00004220023FFF7B0F801200A21042201239C
:1037B000FFF7AAF802200B2100220123FFF7A4F84B
:1037C00002200A2100220123FFF79EF802200B218C
:1037D00008220123FFF798F802200A21082201237A
:1037E000FFF792F803204FF00111FFF74DF8032087
:1037F0004FF48031FFF748F803200A210422012307
:10380000FFF782F803200B2101220023FFF77CF849
:1038100080BD00BF80B485B000AF786039607B6840
:1038200003F1C063FB60FB683A681A601437BD4659
:103830005DF8047B704700BF80B485B000AF78604E
:1038400039607B6803F18063FB60FB683A681A604B
:103850001437BD465DF8047B704700BF80B582B069
:1038600000AF03463960FB71FB79002B1CD0FB795C
:10387000012B19D0FB79022B16D0FB79032B13D027
:10388000FB79042B10D0FB79052B0DD0FB79062B8F
:103890000AD0FB79072B07D0FB79082B04D0FB79E2
:1038A000092B01D0FB790A2BFA7913465B001344EC
:1038B0001B010C3303F1804303F520433A680121D7
:1038C00001FA02F218461146FFF7B6FF0837BD4667
:1038D00080BD00BF80B582B000AF03463960FB7188
:1038E000FB79002B1CD0FB79012B19D0FB79022B23
:1038F00016D0FB79032B13D0FB79042B10D0FB7966
:10390000052B0DD0FB79062B0AD0FB79072B07D0AE
:10391000FB79082B04D0FB79092B01D0FB790A2B0A
:10392000FA7913465B0013441B010C3303F1804307
:1039300003F520433A68012101FA02F218461146C4
:10394000FFF768FF0837BD4680BD00BF80B584B073
:1039500000AF00233B7001237B7000237B600D4B85
:10396000BB6002233B733B460B481946FFF776F9D1
:10397000094B40F60F729A64074B03225A64074BB7
:1039800000221A70064B00221A7000F093F81037CC
:10399000BD4680BDDDFB050000C0004001010020E8
:1039A0000001002080B500AF1A4B20225A60194B4D
:1039B00080225A60002000F033F800F05BF8154BCD
:1039C000E322DA6200F056F8012000F029F800F056
:1039D00051F800F039F8104B1B889AB20F4B1A803F
:1039E0000E4B1B889BB21B029AB20C4B1A80094BE0
:1039F00004225A6000F028F8084B1B889AB2064B44
:103A00001B889BB213439AB2044B1A8000F044F80F
:103A100080BD00BF00C00040020100200401002062
:103A200080B483B000AF0346FB71064B01225A609D
:103A3000044AFB7943F08003D3620C37BD465DF83E
:103A4000047B704700C0004080B400AF00BF074B4C
:103A50005B6B03F02003002BF9D0044BDB699AB2B7
:103A6000034B1A80BD465DF8047B704700C00040E0
:103A70000201002080B400AF00BF064B5B6B03F077
:103A80004003002BF9D0034B4022DA63BD465DF8BA
:103A9000047B704700C0004080B400AF044B082294
:103AA0005A60034B02225A60BD465DF8047B7047A2
:103AB00000C0004080B582B000AF00237B600AE008
:103AC00002200B21FFF7CAFE02200B21FFF702FFA5
:103AD0007B6801337B607B68082BF1DD054B9B68BD
:103AE00003F00103002B02D0024B20225A6008375A
:103AF000BD4680BD00C0004080B483B000AF034627
:103B0000FB7197F90730002B0BDB084997F9073059
:103B10005B09FA7902F01F02012000FA02F241F873
:103B200023200C37BD465DF8047B704700E100E0C0
:103B300080B58AB000AF4FF400433B623A6A134647
:103B40005B001344013B7B620023FB610123BB61EB
:103B50000EE0FB690133FB613B6A5B083B623A6A3A
:103B600013465B001344013B7B62BB695B00BB6196
:103B70007B6AB3F5803FECD23A6A13469B0013444C
:103B80009A0013441E4AA2FB03239B097A6AD31AA4
:103B90007B61BB69012B03D91A48B969FCF7D0FFD7
:103BA0000023FB710123BB7100237B7100233B7158
:103BB00000233B7200237B7200233B730023BB7204
:103BC0000023FB723B1D10481946FFF721FA0E48EF
:103BD00000217A6AFFF7DAF90B4801217A69FFF7C9
:103BE000D5F9094B03229A62074B0322DA620320BC
:103BF00000F0ACFA1B20FFF77FFF2837BD4680BDE1
:103C0000D34D6210800616000060044080B582B07B
:103C100000AFFDF7EFFD104B1B6A7B600E4A7B681F
:103C200093627B6803F00203002B05D00B4B1B68EB
:103C300043F00103094A13607B6803F00103002B82
:103C400005D001200A2104220123FEF75DFEFDF7C5
:103C5000D9FD0837BD4680BD00600440E400002067
:103C600080B400AF044BDB6C1B0EDBB21846BD46C4
:103C70005DF8047B704700BFB081E00F80B582B073
:103C800000AF154B01225A64FFF7EAFF0346FB71B0
:103C9000FB79002B0CD1114B4AF6E8521A60104AFE
:103CA0000F4B1B6843F0040313600C4B00221A6097
:103CB000FB79012B05D80B4A0A4B1B6843F40053D0
:103CC0001360094A084B1B6A23F4441343F4881316
:103CD00013620837BD4680BD00000E4090310E4093
:103CE00098310E4064310E4000400E40B0B592B0A5
:103CF00000AF984B00221A60002387F8473000235A
:103D000087F83F30002387F83E30934B00221A702B
:103D1000924B01221A700023BB6300233B640023F3
:103D20007B63042000F012FA8D4B07F11804186829
:103D300059689A68DB680FC48A4B3C1D1D46286889
:103D40006968AA68EB680FC42B8A2380FFF796FF87
:103D500000233B7000237B7007F118031846FEF721
:103D60004DFA02237B703B461846FDF7C7FF3B1D0B
:103D70001846FDF7CDFA11200421FDF7EDF80320D8
:103D800000210022FDF736FBFFF7A2FCFFF7F4FC51
:103D9000FFF7CEFEFFF7DAFDFFF7FCFAFFF762FA56
:103DA00071480121FFF71EF970480121FEF738FF25
:103DB0006F480521FFF7EAF900BF6D4B5B6C002BE4
:103DC000FBD1FDF71FFD00F0F3F9624B1B68002BE0
:103DD00001D100F0EDF95F4B1B6803F08003002B6D
:103DE0000BD05C4B1B6823F080035A4A1360604A77
:103DF0005F4B9B6B43F001039363564B1B6803F0CF
:103E00000403002B14D0534B1B6823F00403514AC6
:103E1000136097F84730002B01D000233B64012347
:103E200087F84730524A524B9B6B43F0040393632D
:103E3000484B1B6803F02003002B17D0454B1B6831
:103E400023F02003434A1360FFF7ECFA03461946B8
:103E5000484A3B6C13440A461A703B6C01333B647E
:103E6000434A434B9B6B43F004039363394B1B68FA
:103E700003F04003002B14D03D4A3D4B9B6B23F0D5
:103E800001039363334B1B6823F04003314A1360F3
:103E9000032000F071F9364A354B1B6823F40053B8
:103EA00013602C4B1B6803F00803002B1DD000236C
:103EB0003B64284B1B6823F00803264A13602C4AF6
:103EC0002B4B9B6B23F004039363294A284B5B68BD
:103ED00043F01003536097F84730002B02D0254879
:103EE000FFF7B2FB002387F847301A4B1B6803F03B
:103EF0000103002B2CD0174B1B6823F00103154A3C
:103F00001360002387F83F3000233B640023BB632A
:103F100000F08CF800F084F8174B1B889BB2184611
:103F200000F0AAF8386300F093F8386BFFF7D0FA86
:103F300000237B630E4A0E4B1B6843F4005313604F
:103F4000032000F003F900200C490D4AFEF774FF2E
:103F50003BE700BFE4000020B4000020B5000020D3
:103F6000F84A0000084B00000060044000C0004018
:103F700000A00440D800002004010020C800002058
:103F8000B800002080B485B000AF786039607B68ED
:103F900003F18063FB60FB683A681A601437BD4622
:103FA0005DF8047B704700BF80B582B000AF034668
:103FB0003960FB71FB79002B1CD0FB79012B19D0E8
:103FC000FB79022B16D0FB79032B13D0FB79042B42
:103FD00010D0FB79052B0DD0FB79062B0AD0FB798D
:103FE000072B07D0FB79082B04D0FB79092B01D0D4
:103FF000FB790A2BFA7913465B0013441B010C333F
:1040000003F1804303F520433A68012101FA02F2EB
:1040100018461146FFF7B6FF0837BD4680BD00BF02
:1040200080B500AFFFF7BEFC80BD00BF80B500AF1C
:1040300002200B2108220123FEF766FC02200A2140
:1040400008220123FEF760FCFFF734FD80BD00BFAE
:1040500080B500AF02200B2100220123FEF754FCA3
:1040600002200A2100220123FEF74EFC01200A2132
:10407000FFF79AFF80BD00BF80B586B000AF034652
:10408000FB80FB88184600F007FA02460B461046F4
:10409000194624A3D3E9002300F064FA02460B4634
:1040A000104619464FF000021B4B00F085FB0246FC
:1040B0000B461046194616A3D3E9002300F09EF8DC
:1040C00002460B461046194600F05EFC03463B6173
:1040D0003B697B61114B1B7883F00103DBB2002B42
:1040E00011D0D7ED047AB2EE027A67EE877AB1EE9C
:1040F000047AC7EE877A9FED0A7A77EE877AC7ED62
:10410000037AFB687B617B6918461837BD4680BD22
:10411000CDCCCCCCCC6C47400000F040B5000020AA
:1041200000000042D7A3703D0AF7654080B400AF9D
:10413000054A054B1B6923F00403136130BFBD46DC
:104140005DF8047B704700BF00ED00E080B582B0F1
:1041500000AF7860FDF74EFB064A7B6852F82330CB
:104160005A1C04497B6841F82320FDF74BFB0837B4
:10417000BD4680BDE800002080B582B000AF786009
:10418000FDF738FB094A7B6852F82330002B08D032
:10419000064A7B6852F823305A1E04497B6841F86E
:1041A0002320FDF72FFB0837BD4680BDE800002027
:1041B00080B500AF0E4B1B68002B00D017E00C4BF6
:1041C0005B68002B00D012E0094B9B68002B02D0EB
:1041D000FFF7ACFF0AE0064BDB68002B03D00120A1
:1041E000FDF7BAFC02E00120FDF7DAFC00BF80BD5C
:1041F000E800002081F0004102E000BF83F00043AE
:1042000030B54FEA41044FEA430594EA050F08BF71
:1042100090EA020F1FBF54EA000C55EA020C7FEA35
:10422000645C7FEA655C00F0E2804FEA5454D4EBB2
:104230005555B8BF6D420CDD2C4480EA020281EA7C
:10424000030382EA000083EA010180EA020281EAB4
:104250000303362D88BF30BD11F0004F4FEA013106
:104260004FF4801C4CEA113102D0404261EB410115
:1042700013F0004F4FEA03334CEA133302D052429B
:1042800063EB430394EA050F00F0A780A4F1010457
:10429000D5F1200E0DDB02FA0EFC22FA05F2801891
:1042A00041F1000103FA0EF2801843FA05F3594177
:1042B0000EE0A5F120050EF1200E012A03FA0EFCF6
:1042C00028BF4CF0020C43FA05F3C01851EBE37120
:1042D00001F0004507D54FF0000EDCF1000C7EEB3D
:1042E00000006EEB0101B1F5801F1BD3B1F5001F7B
:1042F0000CD349085FEA30004FEA3C0C04F101049A
:104300004FEA445212F5800F80F09A80BCF1004FC2
:1043100008BF5FEA500C50F1000041EB045141EA44
:10432000050130BD5FEA4C0C404141EB010111F445
:10433000801FA4F10104E9D191F0000F04BF0146F0
:104340000020B1FA81F308BF2033A3F10B03B3F1CE
:1043500020020CDA0C3208DD02F1140CC2F10C025E
:1043600001FA0CF021FA02F10CE002F11402D8BFBC
:10437000C2F1200C01FA02F120FA0CFCDCBF41EA88
:104380000C019040E41AA2BF01EB0451294330BD57
:104390006FEA04041F3C1CDA0C340EDC04F1140434
:1043A000C4F1200220FA04F001FA02F340EA03000B
:1043B00021FA04F345EA030130BDC4F10C04C4F151
:1043C000200220FA02F001FA04F340EA0300294631
:1043D00030BD21FA04F0294630BD94F0000F83F47B
:1043E000801306BF81F480110134013D4EE77FEA5E
:1043F000645C18BF7FEA655C29D094EA050F08BFAA
:1044000090EA020F05D054EA000C04BF194610468A
:1044100030BD91EA030F1EBF0021002030BD5FEACE
:10442000545C05D14000494128BF41F0004130BDF6
:1044300014F580043CBF01F5801130BD01F000454A
:1044400045F0FE4141F470014FF0000030BD7FEABD
:10445000645C1ABF194610467FEA655C1CBF0B46B8
:10446000024650EA013406BF52EA033591EA030FCF
:1044700041F4002130BD00BF90F0000F04BF0021C7
:10448000704730B54FF4806404F132044FF00005FA
:104490004FF0000150E700BF90F0000F04BF002173
:1044A000704730B54FF4806404F1320410F00045D9
:1044B00048BF40424FF000013EE700BF42004FEAD4
:1044C000E2014FEA31014FEA02701FBF12F07F4351
:1044D00093F07F4F81F06051704792F0000F14BF4E
:1044E00093F07F4F704730B54FF4607401F0004592
:1044F00021F0004120E700BF50EA010208BF7047E9
:1045000030B54FF000050AE050EA010208BF7047DD
:1045100030B511F0004502D5404261EB41014FF446
:10452000806404F132045FEA915C3FF4DCAE4FF04A
:1045300003025FEADC0C18BF03325FEADC0C18BF31
:10454000033202EBDC02C2F1200300FA03FC20FA82
:1045500002F001FA03FE40EA0E0021FA02F11444CF
:10456000C1E600BF70B54FF0FF0C4CF4E06C1CEAE4
:1045700011541DBF1CEA135594EA0C0F95EA0C0F59
:1045800000F0DEF82C4481EA030621EA4C5123EACC
:104590004C5350EA013518BF52EA033541F48011FB
:1045A00043F4801338D0A0FB02CE4FF00005E1FBAE
:1045B00002E506F00042E0FB03E54FF00006E1FBF8
:1045C00003569CF0000F18BF4EF0010EA4F1FF043B
:1045D000B6F5007F64F5407404D25FEA4E0E6D417B
:1045E00046EB060642EAC62141EA55514FEAC5208C
:1045F00040EA5E504FEACE2EB4F1FD0C88BFBCF508
:10460000E06F1ED8BEF1004F08BF5FEA500E50F1B8
:10461000000041EB045170BD06F0004646EA01017E
:1046200040EA020081EA0301B4EB5C04C2BFD4EBB0
:104630000C0541EA045170BD41F480114FF0000EA9
:10464000013C00F3AB8014F1360FDEBF002001F017
:10465000004170BDC4F10004203C35DA0C341BDC91
:1046600004F11404C4F1200500FA05F320FA04F063
:1046700001FA05F240EA020001F0004221F0004197
:1046800010EBD37021FA04F642EB06015EEA430E0A
:1046900008BF20EAD37070BDC4F10C04C4F120053A
:1046A00000FA04F320FA05F001FA04F240EA0200ED
:1046B00001F0004110EBD37041F100015EEA430EBE
:1046C00008BF20EAD37070BDC4F1200500FA05F2DE
:1046D0004EEA020E20FA04F301FA05F243EA02035D
:1046E00021FA04F001F0004121FA04F220EA02006C
:1046F00000EBD3705EEA430E08BF20EAD37070BDB2
:1047000094F0000F0FD101F00046400041EB010191
:1047100011F4801F08BF013CF7D041EA060195F073
:10472000000F18BF704703F00046520043EB03032D
:1047300013F4801F08BF013DF7D043EA060370471A
:1047400094EA0C0F0CEA135518BF95EA0C0F0CD025
:1047500050EA410618BF52EA4306D1D181EA03016B
:1047600001F000414FF0000070BD50EA410606BF65
:104770001046194652EA430619D094EA0C0F02D1AA
:1047800050EA013613D195EA0C0F05D152EA0336EF
:104790001CBF104619460AD181EA030101F000410D
:1047A00041F0FE4141F470014FF0000070BD41F056
:1047B000FE4141F4780170BD70B54FF0FF0C4CF430
:1047C000E06C1CEA11541DBF1CEA135594EA0C0F4F
:1047D00095EA0C0F00F0A7F8A4EB050481EA030E9C
:1047E00052EA03354FEA013100F088804FEA033383
:1047F0004FF0805545EA131343EA12634FEA022251
:1048000045EA111545EA10654FEA00260EF0004111
:104810009D4208BF964244F1FD0404F5407402D263
:104820005B084FEA3202B61A65EB03055B084FEAF4
:1048300032024FF480104FF4002CB6EB020E75EBF1
:10484000030E22BFB61A754640EA0C005B084FEA19
:104850003202B6EB020E75EB030E22BFB61A754696
:1048600040EA5C005B084FEA3202B6EB020E75EBE1
:10487000030E22BFB61A754640EA9C005B084FEA59
:104880003202B6EB020E75EB030E22BFB61A754666
:1048900040EADC0055EA060E18D04FEA051545EA55
:1048A00016754FEA06164FEAC30343EA52734FEAFE
:1048B000C2025FEA1C1CC0D111F4801F0BD141EA77
:1048C00000014FF000004FF0004CB6E711F4801FDC
:1048D00004BF01430020B4F1FD0C88BFBCF5E06FBC
:1048E0003FF6AFAEB5EB030C04BFB6EB020C5FEACC
:1048F000500C50F1000041EB045170BD0EF0004E21
:104900004EEA113114EB5C04C2BFD4EB0C0541EA52
:10491000045170BD41F480114FF0000E013C90E64F
:1049200045EA060E8DE60CEA135594EA0C0F08BF13
:1049300095EA0C0F3FF43BAF94EA0C0F0AD150EA12
:1049400001347FF434AF95EA0C0F7FF425AF1046A5
:1049500019462CE795EA0C0F06D152EA03353FF4CD
:10496000FDAE1046194622E750EA410618BF52EA4A
:1049700043067FF4C5AE50EA41047FF40DAF52EA1E
:1049800043057FF4EBAE12E74FEA4102B2F1E04398
:1049900024BFB3F5001CDCF1FE5C0DD901F0004C26
:1049A0004FEAC0024CEA5070B2F1004F40EB830076
:1049B00008BF20F00100704711F0804F21D113F1A2
:1049C0003872BCBF01F00040704741F480114FEADB
:1049D0005252C2F11802C2F1200C10FA0CF320FA64
:1049E00002F018BF40F001004FEAC1234FEAD32381
:1049F00003FA0CFC40EA0C0023FA02F34FEA4303EB
:104A0000CCE77FEA625307D150EA01331EBF4FF073
:104A1000FE4040F44000704701F0004040F0FE408E
:104A200040F40000704700BF08B5074B044613B1BF
:104A30000021AFF30080054B1868836A03B19847E3
:104A4000204600F033F800BF000000001C4B0000BF
:104A500070B50E4B0E4CE41AA41000251E46A5425C
:104A600004D056F8253098470135F8E700F020F8D3
:104A7000084C094BE41AA41000251E46A54204D098
:104A800056F8253098470135F8E770BD74000020CE
:104A900074000020780000207400002002440346C7
:104AA000934202D003F8011BFAE77047FEE700BF0C
:104AB000F8B500BFF8BC08BC9E467047F8B500BF0B
:104AC000F8BC08BC9E46704740787D01000000009D
:104AD000005A620200010000C0CF6A00020000001C
:104AE000809FD50002010000002D3101020200006C
:104AF00008091108070000030002080705000A0062
:104B0000C8000000FFFF010001000000A0006801D4
:104B10000A200706020A04070000430014000020D0
:044B20000000000091
:084B240044B6FF7F0100000010
:104B2C00005A620200800000C0EA2101C0EA2101A3
:104B3C00C0EA21010000000000000000000000009D
:104B4C000000000000000000000000000000000059
:104B5C00000000001A4B00000000000000000000E4
:104B6C000000000000000000000000000000000039
:104B7C000000000000000000000000000000000029
:104B8C000000000000000000000000000000000019
:104B9C0000000000310100000D01000000000000C9
:04000003000001DD1B
:00000001FF
